:100000000C94EC010C9433020C9433020C9481098F
:100010000C9433020C9433020C9433020C9433028C
:100020000C9433020C9433020C94981A0C946A1BAF
:100030000C942E160C9433020C9433020C9433025D
:100040000C9433020C9433020C9433020C9433025C
:100050000C9433020C947B160C9433020C943302F0
:100060000C9433020C9433020C9433020C9433023C
:100070000C9433020C9433020C9433020C9433022C
:100080000C9433020C9433020C9433020C9433021C
:100090000C9433020C9433020C9433020C9433020C
:1000A0000C9433020C9433020C943302740C740CD1
:1000B000A60CA60C090E090E090E090EF30C880DEC
:1000C000990D990DF90D090E090E020E920E920E60
:1000D000A40EA40E9B0EA40EA40EA40E920E920EBD
:1000E000A00EA40EA40EA00ED71BFE1BF61CFE1B1A
:1000F000F61C4A1C6D1CF61CC41CD31C000000001E
:100100000000000000000000000029003600370059
:100110001A000900000000003300120008000C0063
:1001200018000000000004001B0006001900140065
:100130004E6200001D000353E200E3002C422B61DD
:1001400000000000000000000000000000000000AF
:100150002A001C000700150010000000000013001A
:100160001600110017000A00000000000E000F002A
:100170000D000B0005003514000038004600E600B5
:10018000E40028412A720000000000000000000086
:1001900000000000000029001F02200221022202AC
:1001A000000000001E021F002000210022000000AD
:1001B00000001E003B003C003D003E003F000000F0
:1001C0003A000100010001000100010000000000F0
:1001D0000000000000000000000000004C002602AB
:1001E0002502240223020000000027022600250029
:1001F00024002300000000002700440043004200C8
:100200004000410000004500010001000100010024
:1002100001000000000000000000000000000000DD
:1002200000003500160A1D0100004B000000000010
:100230003502500052004F004E00000000004A00FE
:100240001901510006010000260200004D000100C6
:10025000010001000100010000000000000000009A
:100260000000000000000000350030022F022D02C7
:100270002E0200000000340230002F002D002E005E
:10028000000000003400270226023100310227025C
:10029000000038020100010001000100010000001F
:1002A000000000000000000000000000000000004E
:1002B000000000000000000000000000000000003E
:1002C000000000000000000000000000000000002E
:1002D000000000000000000000000100000000001D
:1002E000000000000000000000000000000000000E
:1002F00000000000000000000000000000000000FE
:1003000000000000000000000000000000000000ED
:1003100000000000000000000000000000000000DD
:100320000000000000000000000000000403300096
:1003300000001603480065006C006900780020008A
:10034000420065007400610000001403590075004C
:100350007300680061006B006F0062006F000000B6
:100360000403090409022200010100A0320904006B
:1003700000010301010009211101000122400007D1
:1003800005810308000A1201100100000008EDFEBB
:10039000603001000102030105010906A101050702
:1003A00019E029E7150025019508750181029501DD
:1003B000750881010507190029FF150026FF009522
:1003C0000675088100050819012905950575019133
:1003D00002950175039101C011241FBECFEFDAE031
:1003E000DEBFCDBF04B603FE27C08091FD01909112
:1003F000FE01A091FF01B09100028730904BA74011
:10040000B04BD1F41092FD011092FE011092FF0149
:100410001092000214BE84B7877F84BF0FB6F89491
:10042000A8958091600088618093600010926000C0
:100430000FBEE0E0F8E3099511E0A0E0B1E0E8EEDE
:10044000FAE302C005900D92A832B107D9F721E076
:10045000A8E2B1E001C01D92AD3FB207E1F70E94F2
:10046000DA170C94721D0C9400000E9456068093BB
:1004700028010C94F6040C94E30A81E0089581E0CD
:1004800008950C943F0208950C9443021F93CF9358
:10049000DF9300D000D01F92CDB7DEB749835A83D7
:1004A0006B8330914C0189819A81311114C066238C
:1004B00059F0222349F00E94B113182F682F898127
:1004C0009A810E945A1303C00E948513182F6981D4
:1004D0007A81812F04C00E94B11369817A810F90C3
:1004E0000F900F900F900F90DF91CF911F910C9470
:1004F000F802FC01262F4081518162817381848141
:100500000C944602CF93DF93EC0160E00E947902E5
:10051000BE01DF91CF910C9444020E94E31481113B
:1005200002C00E9483150C9435020C94F4040895C3
:100530000C94970281E008950C949A02CF93C82FEF
:100540000E9498028C2F0E949C02CF9108950895DA
:100550000E94800E0E94A7022FEF84E39CE02150AE
:1005600080409040E1F700C000000C94A1160F936A
:100570001F93CF93DF93EC0161E00E9479028C011D
:10058000BE010E944102882349F1BE01C8010E94B8
:100590003207882319F1BE01C8010E94730788231E
:1005A000E9F0BE01C8010E949E088823B9F08A8143
:1005B000882369F001158CE5180731F00E3D1C45C4
:1005C00031F40E9483150AC00E94A80207C0CE0120
:1005D000DF91CF911F910F910C943D0280E0DF914C
:1005E000CF911F910F91089580E090E008950895B4
:1005F00026E4829FC0011124FC0127E0729FE00DD8
:10060000F11D1124E60FF11DEE0FFF1FE450FF4F07
:10061000859194910895880F991FFC01E45DFC4F2A
:10062000859194910895CF93DF930E94F8020E94E0
:100630000F04EC01811521E59207A0F5811540E535
:10064000940708F086C0C11580E2D807F0F4C11500
:1006500021E0D20708F0DFC0C03ED10588F4C03CDD
:10066000D10508F062C0C130D10509F4D4C008F446
:10067000D0C0CE010497813A910508F4CCC0C9C01E
:10068000C83ED10508F4C7C0C4C0C11540E4D407B2
:1006900008F05CC0C11580E3D80708F04DC0CE015A
:1006A0009F7046C0811525E59207A0F4811544E5A9
:1006B000940708F095C0C11583E5D80708F07AC003
:1006C000C11522E5D20708F05FC0DC2FCC27C16F2F
:1006D000D06AA1C0811549E59407A0F4C11588E549
:1006E000D80708F082C0C11526E5D20708F091C0EE
:1006F0008C2F0E94A3048F71C82FD0E0DC2FCC2751
:10070000D06289C081154AE5940708F473C09056F9
:100710008115904208F07DC08D2F8F710E94A30437
:10072000DD27D0628F71D82B76C0CE01805C910915
:100730000E940B03EC016FC0CE019927D3FF03C0C9
:10074000EC01D86C68C0EC01D06C65C0DF70D06A79
:1007500062C074E0969587957A95E1F783709C2F37
:10076000937021E030E002C0220F331F9A95E2F728
:100770003C68382BCF70C695C69540E2C49FE00117
:100780001124C22BD32B47C0CE018370992721E0BF
:1007900030E002C0220F331F8A95E2F78C2F869536
:1007A000869540E2849FC0011124E901C82BD92B12
:1007B000DC6831C0CE018370992721E030E002C0AF
:1007C000220F331F8A95E2F78C2F8695869540E29B
:1007D000849FC0011124E901C82BD92BDA681BC002
:1007E000D82FCC27C46FD06A16C0DC2FCC27C06F9F
:1007F000D06A11C08F700E94A30494E0D695C7956B
:100800009A95E1F7CF70D0E0DC2FCC27D069C82BC8
:1008100002C0C0E0D0E0CE01DF91CF9108958238D0
:10082000910569F1B0F48133910509F46DC048F484
:100830008932910509F463C08A32910509F469C0CF
:1008400008958533910509F455C089339105B9F0B0
:100850000895833E910569F138F4803E9105B1F029
:10086000823E910509F10895863E9105A9F1873EE2
:100870009105B9F1843E910509F064C023C020912F
:10088000EE0120FD4FC021FD4DC008958091EE0185
:1008900080FD44C08091EF0180FF44C08091EE0153
:1008A00084FD42C083EE4DC08091EE0182FF38C0CE
:1008B000F5CF8091EE0182FD33C08091EF0180FD84
:1008C00031C0ECCF8091EF0181FF32C08091EE0109
:1008D00084FD2AC087EE35C08091EE0183FF26C0DB
:1008E000F5CF8091EE0183FD21C08091EF0181FD64
:1008F0001FC0ECCF8091EE0185FD1CC01DC0809112
:10090000EE0185FD19C016C08091EE0186FD16C06E
:1009100017C08091EE0186FD13C010C089E311C09D
:1009200082EE0FC080EE0DC080E00BC086EE09C0E5
:1009300084EE07C089E205C085E303C08AE201C0F6
:1009400081E390E008959091EE0192FF0DC0282F71
:100950002871283019F4877F846006C0282F2471FD
:10096000243011F48B7F886093FF0DC0282F2871ED
:10097000283119F4877E846106C0282F2471243120
:1009800011F48B7E88612091EF0120FF0DC0382F7C
:100990003871383019F4877F816006C0382F317183
:1009A000313011F48E7F886021FF0DC0282F28710F
:1009B000283119F4877E816106C0282F21712131E9
:1009C00011F48E7E886194FD877E0895E82FF0E013
:1009D000E252FE4F80810895089580EA8A95F1F7EA
:1009E000089508950C94F1040C94F2040C94F1040D
:1009F0000895CF93DF930E94750680910001809146
:100A00000001811102C095E001C090E09093E901DE
:100A100085E0891B8093E801ADE1B1E042E251E05D
:100A200061E070E08D91E82FE295EF70F0E021A198
:100A30008F70EB0102C0CC0FDD1F8A95E2F7CE016B
:100A40009C2F9095922391A392A1892B82A34A1760
:100A50005B0741F7A6E1B1E04DE151E061E070E0F4
:100A60008D91E82FE295EF70F0E021A18F70EB01FE
:100A700002C0CC0FDD1F8A95E2F7CE019C2F909526
:100A8000922391A392A1892B82A34A175B0741F776
:100A9000E4EDF1E0AEEDB1E08EED91E011921D924A
:100AA0008E179F07D9F785E00E941F060E948D02CE
:100AB000DF91CF910C947F060E945606882309F19E
:100AC0008091E80190E082529E4F0E94920681112F
:100AD00014C0809129018F5F80932901863078F0BE
:100AE000E091E801F0E0E252FE4F80E090E01192E8
:100AF000019685309105D9F702C0109229010C9416
:100B000095028091E90190E082529E4F0E94AF06CB
:100B10000C94F8043F924F925F926F927F928F9263
:100B20009F92AF92BF92CF92DF92EF92FF920F937C
:100B30001F93CF93DF938DE1882E81E0982E04EDF3
:100B400011E099ED692E91E0792E512CCC24C394BB
:100B5000D12C5801D8013C901C92F40181914F0195
:100B6000C82FC295CF70D0E099A18F70760101C0D7
:100B7000EE0C8A95EAF7892F8E2989A38AA14E2C3B
:100B8000409484218AA30E94ED04E6E1F1E020E094
:100B900030E09191A92FA295AF70B0E090964C9162
:100BA000D8016C9150E09F7002C0559547959A9579
:100BB000E2F740FD08C09C2D022E01C0990F0A9457
:100BC000EAF7892F01C080E0862BD8018C932F5F34
:100BD0003F4F27303105E9F689A1482249A28AA171
:100BE000E82AEAA20F5F1F4F81E0F501908193117F
:100BF00001C080E0582A6016710609F0AACF609102
:100C0000E90170E062527E4F252D45E084ED91E0D0
:100C10000E9420060E945C05852DDF91CF911F91D7
:100C20000F91FF90EF90DF90CF90BF90AF909F908B
:100C30008F907F906F905F904F903F9008950895B0
:100C4000FF920F931F93CF93DF938C01F62ED72F34
:100C5000C42F222349F081E080932C010E9460166A
:100C600090932B0180932A0180912C018823C1F05D
:100C700080912A0190912B010E946C16069780F0BA
:100C8000EF2DFD2FD8014C2F50E0CD01801B910B93
:100C9000841795071CF48D918193F7CF10922C0146
:100CA000DF91CF911F910F91FF90089580912D01B9
:100CB000811112C08091D80080618093D8008AE1B0
:100CC0008A95F1F700C08091D90080FD02C082E0D2
:100CD00001C081E080932D0181E090912D01913040
:100CE00009F080E008950C9456060E9473068093E4
:100CF00000010E94560681110C94860608950E94F8
:100D00005606811102C00C948C06089561E070E0D3
:100D100081E091E00C942F0961E070E081E091E0C6
:100D20000C943809CF93DF93D82FC92F80E090E03F
:100D30000E94110A892B79F4ED2FFC2F80E090E0BE
:100D4000DC01A15DBE4F2C91219301968530910568
:100D5000B9F781E001C080E0DF91CF91089520E0F4
:100D600030E0FC014191CF01F901E15DFE4F40838C
:100D70002F5F3F4F25303105A1F708950F931F9343
:100D8000CF93DF93C62FD42F122FFC0182818823AB
:100D9000C9F0609336010E946016909335018093EC
:100DA000340180E28C0F883008F057C0C77081E0B2
:100DB00001C0880FCA95EAF7DF91CF911F910F917B
:100DC0000C94340C80913601681330C0809134014A
:100DD000909135010E946C168436910538F500E239
:100DE0000D0FCD17B9F080E28C0F883040F4C7703A
:100DF00081E001C0880FCA95EAF70E943B0C0830D9
:100E000028F581E09D2F977001C0880F9A95EAF729
:100E10000E94340C812F0E94210C0830F0F4D7700E
:100E200081E001C0880FDA95EAF70AC080E28C0FF2
:100E3000883098F4C77081E001C0880FCA95EAF73E
:100E4000DF91CF911F910F910C943B0C812FDF917B
:100E5000CF911F910F910C94210CDF91CF911F9195
:100E60000F9108959C01CB01233F4CE53407F9F025
:100E700078F4283DFCE53F07B9F0293D4CE53407FF
:100E800011F1273D3C4531F526E241EE61EE1EC0F1
:100E9000253FFCE53F0799F070F0263F3C45D1F433
:100EA00027E245EE66EE12C027E245EE0EC026E2CE
:100EB00041EE60EE0BC027E245EE64EE07C026E28D
:100EC00041EE62EE03C028E241E065EE0E94BE06FC
:100ED00080E00895FC018281882319F01092360188
:100EE000089581E00895CF93DF93EC01FB018281A7
:100EF000882309F41FC1C230FCE5DF0708F41BC1D9
:100F0000C6319CE5D90738F09E012A5F3C4529305F
:100F1000310508F010C10E94F6149093EF01809300
:100F2000EE01C031ECE5DE0709F4C3C008F041C0B2
:100F3000C8308CE5D80709F49AC0F0F4C430ECE569
:100F4000DE0709F487C068F4C2308CE5D80709F4DD
:100F500077C0C330DC4509F0E3C08091EE018260C8
:100F600076C0C630ECE5DE0709F46EC008F07BC041
:100F70008091EE0188606BC0CC308CE5D80709F415
:100F800085C068F4CA30ECE5DE0709F474C008F0E7
:100F900079C00E94800E8091EE01806858C0CE30EA
:100FA0008CE5D80709F476C008F07FC08091EE0187
:100FB0008BC0CB3FECE5DE0709F44FC018F5C33119
:100FC0008CE5D80709F47DC078F4C131ECE5DE0783
:100FD00009F473C0C231DC4509F0A2C00E94800E42
:100FE0008091EE018F7733C0C5318CE5D80709F4C5
:100FF00072C008F486C0CA3FDC4509F091C08091F8
:10100000EF013EC0CF3FFCE5DF0709F45FC058F4B5
:10101000CD3F9CE5D90709F444C008F43FC0809156
:10102000EF0182602DC0C130FDE5DF0709F475C016
:1010300008F45DC0C230DD4509F072C080E06EC0CA
:101040008091EE01816003C08091EE018061809308
:10105000EE0166C08091EE0111C08091EF018260C7
:101060008093EF015DC08091EE018062F0CF8091AE
:10107000EE018064ECCF8091EE0188608460E7CF60
:101080008160EECF8091EE018E7FE1CF8091EE0105
:101090008D7FDDCF8091EE01877FD9CF8091EF01E9
:1010A00018C08091EF018D7FDBCF8091EE018F7EA4
:1010B000CECF8091EE018F7DCACF8091EE018F7BE4
:1010C000C6CF8091EE01877F8B7FC1CF8091EF01EA
:1010D0008D7F8E7FC5CF8091EE0182FB222720F984
:1010E00091E0922790FB82F990FB83F9B0CF809139
:1010F000EF01982F909591708E7F892B90FB81F94D
:10110000AFCF0E94800E8091EE0187FB222720F94D
:1011100091E0922790FB87F99ACF81E00E94851594
:101120008091EE019091EF010E9407150E94800EC0
:1011300080E001C081E0DF91CF910895CF93DF93EC
:1011400086319C4541F5EB010E943214982F8A812B
:101150002091090130910A01882379F09A7A81E07F
:1011600009F480E080933701911102C069E201C067
:1011700065E3C9010E94CC150AC080913701811135
:1011800002C069E201C065E3C9010E94CE150E9458
:10119000801480E001C081E0DF91CF9108958EE15D
:1011A0004A9B02C08150E1F74A9BFECF08955A98AE
:1011B00080E28A95F1F75A9A0895FC012AE02A956F
:1011C000F1F790E020E080E031E0261779F040E18F
:1011D0004A95F1F7880F4A9B02C08160932700C0AF
:1011E000000040E14A95F1F72F5FEFCF20E12A950B
:1011F000F1F729B100C0000030E13A95F1F722FB88
:10120000222720F992272081920F90830895EF9250
:10121000FF920F931F93CF93DF931F92CDB7DEB74B
:1012200019828C017C01E60EF11C0E151F0559F088
:101230000E94CF0868E0CE0101960E94DD08F80107
:1012400081938F01F2CF81E09981911180E00F901D
:10125000DF91CF911F910F91FF90EF9008959093A0
:101260003A018093390160933801529A5A9A08954D
:1012700090933A01809339016093380152985A9AB9
:10128000EA9AE9E6F0E080818F7C808308956150DE
:1012900091E001C0990F6A95EAF720E031E09923C7
:1012A00061F0492F482319F05A9A232701C05A9810
:1012B00040E24A95F1F79695F2CF222311F05A9A1F
:1012C00001C05A9880E28A95F1F75A980895FF92E2
:1012D0000F931F93CF93DF93EC018C01060F111D29
:1012E000C017D10741F0F9900E94D70868E08F2D10
:1012F0000E944709F5CFDF91CF911F910F91FF9089
:1013000008951F920F920FB60F9211240F931F93FF
:101310002F933F934F935F936F937F938F939F93FD
:10132000AF93BF93EF93FF93CF93DF931F92CDB70C
:10133000DEB719820E94CF0867E0CE0101960E94B5
:10134000DD08382F369536953695932F96959570FE
:10135000232F2570920F292F2370969596958770CD
:10136000920F891348C08981811145C0809138014D
:10137000831708F440C080E18A95F1F75A9A529A8F
:10138000A2E0AA95F1F700C00091390110913A014D
:10139000B8E03B9F000D111D11245A98F80165819A
:1013A000662321F0868197810E9467090E94D708F1
:1013B000F0E1FA95F1F75A9852985A9A80E18A9595
:1013C000F1F7D80112966C911297662369F0139683
:1013D0008D919C9114970E940709D801ED91FC9181
:1013E000811105C082E004C0D801ED91FC9188E034
:1013F00080830E94CF080F90DF91CF91FF91EF91F2
:10140000BF91AF919F918F917F916F915F914F911C
:101410003F912F911F910F910F900FBE0F901F9032
:1014200018950F931F93CF93DF932091380130E0ED
:10143000281739070CF471C09C0193E0220F331F69
:101440009A95E1F7C0913901D0913A01C20FD31FAB
:10145000F894529A5A9845E04A95F1F70000982F6F
:10146000969595708570890F982F937086958695BF
:10147000890F8901082B0E94D70884E08A95F1F72B
:1014800000C067E0802F0E94470940E14A95F1F7CC
:1014900052985A9A4A9902C000C0FCCF87E090E067
:1014A0004A9B0EC0019751F4529A5A9AE881F981E9
:1014B00081E08083789481E090E031C000C0F0CF7B
:1014C0006D81662381F08E819F810E9407098111C1
:1014D0000AC0529A5A9AE881F98182E0808378940E
:1014E00082E090E01CC00E94CF0880E28A95F1F76C
:1014F0005A98529A40E14A95F1F76A81662321F0A1
:101500008B819C810E9467090E94D708E881F9813C
:101510001082789480E090E002C084E090E0DF9157
:10152000CF911F910F9108959093400180933F01B7
:101530000895E0913F01F0914001309721F0019032
:10154000F081E02D099480E00895E0913F01F09151
:101550004001309721F00280F381E02D0994089535
:1015600020913D0130913E012817390771F0909389
:101570003E0180933D01E0913F01F09140013097A1
:1015800021F00680F781E02D0994089520913B0118
:1015900030913C012817390771F090933C018093FA
:1015A0003B01E0913F01F0914001309721F0008430
:1015B000F185E02D0994089585B7806885BF85B7CA
:1015C000806885BF089508950C94E30A0C94E40A9A
:1015D0000C94E30A0E94DC0A0E94E80A0C94E60AD2
:1015E0000E9457160E94F9040E94B2160C943B0206
:1015F000AF92BF92CF92DF92EF92FF920F931F9321
:10160000CF93DF93CDB7DEB72A970FB6F894DEBF3E
:101610000FBECDBF0E948A050E945606811111C0DF
:101620008FEF89838A831B820E9460168160782FE6
:101630009D838C8349815A816B818D810E948E0BA1
:1016400040C082E4A82E81E0B82E00E010E0C02E59
:10165000802F0E94E604E82EF501D1905F01D82684
:1016600031F40F5F1F4F0A30110589F7D9CF8091F0
:10167000C70181FD0E94EC0480E0FF24F3949D2DBE
:101680009F21D1F08E83CF82EF2081E009F480E0AA
:1016900088870E9460168160782F9A8789874E819B
:1016A0005F8168858A850E948E0BF801EE5BFE4F94
:1016B0008081F826F08205C08F5FFF0C8730F9F635
:1016C000D0CF0E94990A909141018917B1F00E94F0
:1016D000990A809341012A960FB6F894DEBF0FBE97
:1016E000CDBFDF91CF911F910F91FF90EF90DF90D1
:1016F000CF90BF90AF900C949E022A960FB6F894AC
:10170000DEBF0FBECDBFDF91CF911F910F91FF9034
:10171000EF90DF90CF90BF90AF900895CF93DF937D
:10172000CDB7DEB72B970FB6F894DEBF0FBECDBF97
:101730004F83588769877A878B87DE01119686E009
:10174000FD0111928A95E9F785E0FE013796019037
:101750000D928A95E1F749815A816B817C818D8157
:101760009E810E941F112B960FB6F894DEBF0FBE0C
:10177000CDBFDF91CF910895FC01808191810E94BE
:10178000F3130895CF93882371F1C82F8CEF8C0F3A
:10179000813AD0F46C2F8091090190910A010E9446
:1017A0009615882349F06C2F8091090190910A01C8
:1017B0000E94CE150E9480146C2F80910901909197
:1017C0000A010E94CC150CC080E28C0F883058F4BE
:1017D000C77081E001C0880FCA95EAF70E943514EE
:1017E000CF910C948014CF910895882349F1682FEC
:1017F0008CEF860F813A38F48091090190910A01AB
:101800000E94CE150CC080E2860F883050F46770BD
:1018100081E001C0880F6A95EAF70E943B140C949E
:1018200080148BE5860F833020F480E090E00C94E8
:10183000B00A685A673120F480E090E00C94C60A40
:101840000895CF93C82F0E94C20BC93349F42FEFDC
:1018500087EE93E0215080409040E1F700C0000007
:101860008C2FCF910C94F50B882321F00E94351416
:101870000C9480140895882321F00E943B140C944A
:1018800080140895CF92DF92EF92FF920F931F93EF
:10189000CF93DF937C01062FC72FFC01D581D29512
:1018A000DF70128111110E9452140E942B148823A0
:1018B00079F0112369F080E2800F883048F082E0EF
:1018C0000E94CA140E942B1491E0D82ED92601C080
:1018D000D12CCC2EC2948FE0C8228C2D90E0FC013C
:1018E000EA5AFF4F0C942A1D8C2F807FCF708823DB
:1018F00011F0C295C07F112399F0CC2309F464C183
:1019000080E2800F883010F0011104C08C2F0E94FB
:10191000351403C08C2F0E9445140E94801454C1BA
:10192000802F0E94F50BCC2309F473C180E2800F55
:10193000883010F0011104C08C2F0E943B1403C0AA
:101940008C2F0E944B140E94801463C18C2F807FC7
:10195000CF70803211F0C295C07F002319F00130A2
:10196000C9F022C0112371F0DD2341F0D13031F4F0
:101970000E9465148C2B0E946D144BC10E9465144B
:101980008C2B1DC0DD2319F0D13009F442C10E9417
:10199000761425C0112321F0D63008F03AC10EC0CC
:1019A000D53008F036C11BC0112361F0DD2331F0C2
:1019B000F701858180FF08C18F7085838C2F0E947D
:1019C000340C27C1DD2359F0093309F00EC1FFEFB4
:1019D00027EE83E0F15020408040E1F704C18C2FD6
:1019E0000E943B0C16C18C2F837009F045C0111169
:1019F00014C1402F429546954770440F440F602F05
:101A00006F70862F90E0A0E0B0E0042E04C0880F35
:101A1000991FAA1FBB1F0A94D2F704FF10C00FE042
:101A200010E020E030E004C0000F111F221F331F20
:101A30004A95D2F7009510952095309503C000E0A7
:101A400010E09801C695C695C370BC01CD01602B0E
:101A5000712B822B932BC23049F058F4C13019F00E
:101A60000E947012DAC00E945E12D7C00E948212D9
:101A7000D4C00E945C12D1C0112319F08C2F817048
:101A800001C08695882309F4C8C0402F4295469529
:101A90004770440F440F602F6F70862F90E0A0E0D6
:101AA000B0E0042E04C0880F991FAA1FBB1F0A9420
:101AB000D2F704FF10C00FE010E020E030E004C0D7
:101AC000000F111F221F331F4A95D2F70095109562
:101AD0002095309503C000E010E09801C695C695AA
:101AE000C370BC01CD01602B712B822B932BC230B4
:101AF00049F058F4C13019F00E9435138EC00E948D
:101B000023138BC00E94471388C00E94961285C081
:101B1000CF70112339F08C2F0E94BC12802F0E94AD
:101B2000340C7BC0802F0E943B0C8C2F0E94DD1256
:101B300074C0023F01F128F4003F41F0013FA1F0E1
:101B40003FC0033FF9F0043F39F13AC0112341F09F
:101B5000D53008F05EC08C2F8F710E94021359C0DF
:101B6000D63008F056C0F7CF112339F08C2F8F7183
:101B70000E94BC124EC01123C9F38C2F8F710E949A
:101B8000DD1247C0112329F08C2F8F710E94A712FC
:101B900040C00E94A2123DC0112349F0CF718C2F8A
:101BA0000E94BC1263E08C2F0E94B51432C081E009
:101BB0000E94CA14D23068F182E00E94CA1429C07F
:101BC000112331F0DD2391F2802F0E94C20B21C03E
:101BD000DD2399F2093349F49FEFE7EEF3E09150EA
:101BE000E040F040E1F700C00000802F0E94F50BBC
:101BF00010C04C2F4F70602FC7010E94F4020E944A
:101C0000CD110FC04C2F4F70602FC7010E94F702FB
:101C100008C088EF8C0D843020F40E94990A0E943D
:101C20009E02DD20C9F00E94271480FD15C0F70137
:101C300012820E9421140E94BC12C7010E944D0E04
:101C40000E942114DF91CF911F910F91FF90EF908F
:101C5000DF90CF900C94DD12DF91CF911F910F9107
:101C6000FF90EF90DF90CF9008950F931F93CF9345
:101C7000DF93EC01688179818A810E94FE138C01D7
:101C80000E9459130E944A12B801CE010E94420CD0
:101C9000DF91CF911F910F910895CF93DF93FC01B6
:101CA0009081818123813481232B31F08F3F31F466
:101CB00081E09F3F19F403C081E001C080E080FD16
:101CC0000EC0EF01CF010E94B702882341F0CE0180
:101CD0000E94350ECE01DF91CF910C948202DF91EC
:101CE000CF9108950E9452140E9462140C948014A3
:101CF0008091090190910A010E94D0150C94720EF6
:101D00000E9442140C94780EE92FE295EF704E2F4A
:101D100050E0FA013297EE30F105B0F4EA59FF4F86
:101D20000C942A1D803F91F018F4883E68F40EC090
:101D3000843F51F40BC0883E48F0813F29F406C02F
:101D400093FB882780F9089580E0089581E0089545
:101D50000E94F3130E94840E0895CF93DF9300D066
:101D600000D01F92CDB7DEB70F900F900F900F905D
:101D70000F90DF91CF910895CF93DF9300D000D0E3
:101D800000D0CDB7DEB726960FB6F894DEBF0FBEF3
:101D9000CDBFDF91CF9108951F93CF93DF93C09173
:101DA0004D0116E080914E01C81799F0D0E01C9FBC
:101DB000F0011D9FF00D1124E15BFE4F4081518128
:101DC00062817381848195810E94BC0E2196C770C7
:101DD000E9CFDF91CF911F91089540917F015091FC
:101DE00080016091810170918201809183019091C5
:101DF00084010C94BC0E0F931F93CF93DF938091BB
:101E0000840182958F7009F05DC0809181018823E3
:101E100009F458C080914D0110914E0160917F01ED
:101E200070918001C0918201D091830191E06F3F58
:101E300009F090E0292F06E0811709F443C02097AC
:101E400021F07F3F21F030E003C031E001C0322FAC
:101E500090E030FD34C0089FF001099FF00D11247F
:101E6000DF01A15BBE4F11963C911197371327C03C
:101E70003C91361324C012963C91129731111FC029
:101E800013964D915C9114974C1B5D0B4436510594
:101E9000B0F4809184018F70806180938401EC5A4A
:101EA000FE4F80818F70806180838FE791E00E9478
:101EB0004D0EDF91CF911F910F910C94CC0E019696
:101EC0008770BACFDF91CF911F910F9108959F92A4
:101ED000AF92BF92CF92DF92EF92FF920F931F9338
:101EE000CF93DF93CDB7DEB761970FB6F894DEBF1F
:101EF0000FBECDBF8C0185E0F801DE011D9601907B
:101F00000D928A95E1F7F80140815181E28090912C
:101F10007F01609180012091820130918301211520
:101F2000310531F06F3F31F481E09F3F19F403C078
:101F300081E001C080E0F82FF1709F2E80FD2CC160
:101F4000F801A380B4808FE7C82E81E0D82EF090EE
:101F50008101F501E21BF30BFF2009F4EBC0809136
:101F60008401E436F10508F0A7C0282F207F09F08E
:101F700052C0561313C0491311C0FE2CE1100EC0FD
:101F80008F708061809384010E94ED0EC6010E94D3
:101F90004D0E80918401F80185833EC1AB2831F05C
:101FA0005F3F31F481E04F3F19F403C081E001C08D
:101FB00080E080FD03C081E08E2502C080E090E0DB
:101FC000F82FF170FF2E80FF1CC080914D012091F1
:101FD0004E0136E0821709F4FDC090E0389FF00111
:101FE000399FF00D1124E15BFE4F6181561306C04D
:101FF0006081461303C06281E61203C001968770B8
:10200000E9CFFE2CEE2009F407C1809184018160A4
:102010008093840166C0561312C0491310C0E110AA
:102020000EC0F8018583C8010E944D0E86E0F801BC
:10203000AFE7B1E001900D928A95E1F7C8C04D87F6
:102040005E878D859E850E94A80E882379F1EE20FB
:1020500069F120918401822F82958F7090E0029720
:1020600074F080917F019091800198878F83198609
:10207000BB86AA862C87CE0107960E944D0E86E06D
:10208000F801AFE7B1E001900D928A95E1F70E9467
:10209000FB0E0E94ED0E0DC0561729F14D875E878D
:1020A0008D859E850E94A80E81112CC0C8010E94BA
:1020B0004D0EFF24F394B0C0282F207F69F77A2DAE
:1020C000B98AA88A6E2D89890E94AD0E8FE791E0AA
:1020D0000E944D0E86E0F60111928A95E9F70E9462
:1020E000ED0EF12C99C04913D9CFE110D7CFF801EB
:1020F0008583C8010E944D0E86E0F60111928A95F3
:10210000E9F78AC0EE2091F220918401822F829516
:102110008F7090E002970CF4B2CF80917F01909184
:1021200080019A8389831B82BD82AC822E83CE017B
:102130000196A3CFE436F10510F5FE2CEE2009F44C
:10214000B5CF56130BC0491309C086E0F801AFE7BD
:10215000B1E001900D928A95E1F75EC04D875E87F0
:102160008D859E850E94A80E811189CF8091840162
:10217000816080938401C8010E944D0E4DC07A2D6C
:10218000B98AA88A6E2D89890E94AD0E86E0F60173
:1021900011928A95E9F71BC0EE2009F487CF4D878D
:1021A0005E878D859E850E94A80EF82E882309F4EF
:1021B0007DCF86E0F801AFE7B1E001900D928A95FE
:1021C000E1F78FE791E00E94BC0B0E94FB0E0E949A
:1021D000ED0E22C04D875E878D859E850E94F3138C
:1021E000292F22952F70223028F49F7039F0811109
:1021F00005C00BC0243028F49F7049F4805E8830FD
:1022000020F0C8010E944D0E9F2CF92C05C0F8014A
:102210009581907F99F7F9CF8F2D61960FB6F8943D
:10222000DEBF0FBECDBFDF91CF911F910F91FF9009
:10223000EF90DF90CF90BF90AF909F9008951F9345
:10224000CF93DF93CDB7DEB72C970FB6F894DEBFF0
:102250000FBECDBF4F83588769877A878B879C874E
:10226000CE0107960E94670F8823D1F09F81888551
:102270002A853B85232B31F08F3F31F481E09F3F4E
:1022800019F403C081E001C080E080FD47C04F81A8
:10229000588569857A858B859C850E94BC0E3EC0D9
:1022A00086E0FE013796DE01119601900D928A9527
:1022B000E1F7FF81E8856A857B856115710531F05D
:1022C000EF3F31F481E0FF3F19F403C081E001C02A
:1022D00080E080FD23C020914E0130E0C9010196CD
:1022E0008770992740914D0150E084179507F1F1CF
:1022F000F983EA837D836C8396E0929FD001939F5C
:10230000B00D1124A15BBE4FFE01319601900D92DC
:102310009A95E1F780934E010E94CC0E16E08091D1
:102320004D0190914E01891771F1189FC001112440
:10233000815B9E4F0E94670F882329F1E0914D0138
:102340001E9FF0011124E15BFE4F408151816281AB
:102350007381848195810E94BC0E80914D0190E033
:1023600001968770992780934D01D9CF0E94800EE6
:1023700010924E0110924D01EFE7F1E086E0DF018F
:102380001D928A95E9F72C960FB6F894DEBF0FBE22
:10239000CDBFDF91CF911F910895EF92FF920F93E0
:1023A0001F93CF93DF938C01892B09F46CC0F12C20
:1023B000EE24E394E8012196F8018491843740F4F7
:1023C000843008F051C0813081F0823019F15BC057
:1023D000853709F444C0A8F19CE7980F903708F0BE
:1023E00052C08F770E94F50B41C00E5F1F4FFE0158
:1023F000849190E2980F983050F48770FE2D01C0C0
:10240000FF0F8A95EAF78F2F0E94551414C00E947F
:10241000C20B2DC00E5F1F4FFE01849190E2980FFA
:10242000983060F48770FE2D01C0FF0F8A95EAF79F
:102430008F2F0E945B140E94801419C00E94F50B1C
:1024400016C00E5F1F4FFE01C491CC2381F08FE9AF
:102450009FE00197F1F700C00000C150F6CF0E5F7A
:102460001F4FFE01F49003C00E94C20B8E018F2DFE
:10247000882309F49FCFEFE9FFE03197F1F700C01F
:1024800000008150F5CFDF91CF911F910F91FF9008
:10249000EF900895089508950C944B120C944C12EB
:1024A0000E944E126093B6017093B7018093B801F9
:1024B0009093B9010C94720E0C9450120F931F93C9
:1024C0000091B6011091B7012091B8013091B90186
:1024D000602B712B822B932B1F910F910C94501218
:1024E0000F931F930091B6011091B7012091B8018D
:1024F0003091B90160237123822393231F910F919F
:102500000C9450120F931F930091B6011091B701D4
:102510002091B8013091B901602771278227932754
:102520001F910F910C9450120C944B120E94941214
:102530006093B2017093B3018093B4019093B5019D
:102540000C94720E60E070E0CB010C9496120F9325
:102550001F9341E050E060E070E08A019B0104C0FD
:10256000000F111F221F331F8A95D2F7C901B8012E
:102570001F910F910C9496120F931F9341E050E01E
:1025800060E070E004C0440F551F661F771F8A95F6
:10259000D2F78091B2019091B301A091B401B091B2
:1025A000B5018A019B01082B192B2A2B3B2BC90152
:1025B000B8011F910F910C9496120F931F9341E055
:1025C00050E060E070E004C0440F551F661F771FA5
:1025D0008A95D2F740955095609570958091B2019B
:1025E0009091B301A091B401B091B5018A019B0112
:1025F000082319232A233B23C901B8011F910F91F6
:102600000C9496120F931F9341E050E060E070E04D
:1026100004C0440F551F661F771F8A95D2F780911B
:10262000B2019091B301A091B401B091B5018A01BA
:102630009B01082719272A273B27C901B8011F91A9
:102640000F910C9496120F931F930091B201109169
:10265000B3012091B4013091B501602B712B822B15
:10266000932B1F910F910C9496120F931F9300912F
:10267000B2011091B3012091B4013091B5016023F2
:102680007123822393231F910F910C9496120F9321
:102690001F930091B2011091B3012091B4013091C8
:1026A000B50160277127822793271F910F910C9402
:1026B0009612089527E0929F800D1124E82FE69549
:1026C000E695E695877051E001C0550F8A95EAF7C7
:1026D00085E0E89FF0011124EB57FE4F20E030E049
:1026E00070E04081CB01022E02C0969587950A9436
:1026F000E2F78170819584278523842781932F5F5A
:102700003F4F2530310569F7089527E0929F800DEE
:102710001124682F669566956695982F977085E0C9
:10272000689FB001112440E050E080E0FB01E40F1D
:10273000F51FEB57FE4F208130E0092E02C0369581
:1027400027950A94E2F721703327042E01C0220F47
:102750000A94EAF7822B4F5F5F4F4530510531F7FE
:102760000895BF92CF92DF92EF92FF920F931F9343
:10277000CF93DF938C01C090B201D090B301E09071
:10278000B401F090B5018091B6019091B701A0918C
:10279000B801B091B901C82AD92AEA2AFB2ACFE1A7
:1027A000D0E0D701C6010C2E04C0B695A795979529
:1027B00087950A94D2F780FD04C0219790F7B12C39
:1027C00007C0BC2EB8018C2F0E9413030197A9F3F8
:1027D0008B2DDF91CF911F910F91FF90EF90DF90A4
:1027E000CF90BF900895CF93DF93EC010E94B11377
:1027F000BE010E941303DF91CF9108951F93CF93E1
:10280000DF93EB0190914C01992321F0CB010E94C1
:10281000F31313C0882349F0CB010E94B113182F82
:10282000682FCE010E945A1304C0CB010E94851369
:10283000182FBE01812F0E941303DF91CF911F91AA
:1028400008958091BA018595859585950895809123
:10285000BA01877008959091BA01977081E009F4E8
:1028600080E008958091C60108959091C601892B5A
:102870008093C601089580959091C6018923809325
:10288000C60108951092C60108959091C501892B43
:102890008093C501089580959091C5018923809307
:1028A000C50108951092C50108959091C401892B26
:1028B0008093C401089580959091C40189238093E9
:1028C000C40108951092C40108958091BB01089538
:1028D00008950C9468140C9469149091BB01981796
:1028E00021F08093BB010C946B1408958091BB017F
:1028F000882329F01092BB0180E00C946B1408959A
:10290000E0910901F0910A018091C6018083E09174
:102910000901F0910A0190818091C501892B808382
:10292000E0910901F0910A0190818091C401892B05
:1029300080838091BB01882381F0E0910901F091AF
:102940000A019081892B80838091090190910A016D
:102950000E948A1581110E9476148091090190913C
:102960000A010C94A50A0C94681498E0899F9001C0
:102970001124262B2093BA010E94BC128091BA0127
:102980008595859585950C94B3141092BA0180E0D5
:102990000C94B3142091BA01809582238093BA01DC
:1029A000982F977079F430E0482F082E000C550BC3
:1029B0002417350739F08595859585950E94DD1298
:1029C0000C94C514089580E090E00E94381D21E029
:1029D0008C3E9E4F09F020E0822F089582E090E027
:1029E0000C94301D83E090E00C94301DCF9384E074
:1029F00090E00E94301DC82F81E290E00E94301DBF
:102A00002C2F30E0A901582BCA01CF910895CF9304
:102A1000C92F682F84E090E00E943E1D6C2F81E258
:102A200090E0CF910C943E1DAB01BC018FE090E093
:102A30000C94501DAB01BC0183E190E00C94501D3F
:102A400060E070E0CB010C941A1560E070E0CB01FF
:102A50000E9414150C9420156CEE7EEF80E090E03F
:102A60000E945C1D60E082E090E00E943E1D60E0FC
:102A700083E090E00E943E1D1092B6011092B701D3
:102A80001092B8011092B90160E084E090E00E94D9
:102A90003E1D60E081E290E00E943E1D60E085E026
:102AA00090E00E943E1D60E086E090E00E943E1DA6
:102AB0006FEF87E090E00E943E1D40E050E0BA01D9
:102AC00088E090E00E94501D60E08DE090E00E9460
:102AD0003E1D40E050E0BA0188E190E00E94501DA8
:102AE00060E087E190E00E943E1D40E050E0BA01C6
:102AF0008CE190E00E94501D60E080E290E00E9436
:102B00003E1D0C9425150C942C15682F8EE090E03A
:102B10000C943E1DFC01329697E080E0915029F024
:102B200021912223D9F38F5FF9CF0895662349F0CD
:102B3000FC01329608962191621729F0E817F907EF
:102B4000D1F780E0089581E008959C01FC01329660
:102B50009FEF80E04191461789F09F3F19F44111A2
:102B600001C0982F8F5F8630A9F79F3F39F0F90198
:102B7000E90FF11D97FDFA956283089508959C0170
:102B80002A5F3F4FFC014281461301C01282019629
:102B900082179307B9F708950C94A5150C94BF15E7
:102BA000029626E0FC0111922A95E9F7089508950E
:102BB0000C94D7150C94D715CF930E94DA150E9468
:102BC0008A050E94D815C0E08C2F0E94E60481116E
:102BD00004C0CF5FCA30C1F701C081E0CF91089532
:102BE0000C94D7150C94F0150E94F2158091F40105
:102BF000843049F11092C80120E488E190E00FB6DA
:102C0000F894A895809360000FBE2093600080E048
:102C10000E949E020E94F21583B7817F846083BF69
:102C200083B7816083BF7894889583B78E7F83BF95
:102C30000FB6F894A8958091600088618093600039
:102C4000109260000FBE08950C94D7150E94800E5C
:102C50000E94990A0E949E020C9424161F920F92C1
:102C60000FB60F9211248F939F93AF93BF938091D0
:102C7000C801811113C08091EA019091EB01A091EC
:102C8000EC01B091ED014196A11DB11D8093EA01C7
:102C90009093EB01A093EC01B093ED01BF91AF9144
:102CA0009F918F910F900FBE0F901F90189582E00B
:102CB00084BD93E095BD9AEF97BD80936E00089513
:102CC0002FB7F8948091EA019091EB01A091EC016B
:102CD000B091ED012FBF08959C014FB7F8948091FA
:102CE000EA019091EB01A091EC01B091ED014FBF91
:102CF000821B930B089578941F920F920FB60F9238
:102D000011248F939F93AF93BF938091EA01909189
:102D1000EB01A091EC01B091ED010196A11DB11D57
:102D20008093EA019093EB01A093EC01B093ED0145
:102D3000BF91AF919F918F910F900FBE0F901F90F9
:102D4000189587E797E790930108809300089AE029
:102D500088E10FB6F894A895809360000FBE909319
:102D60006000FFCF0E94E314811102C00E9483150E
:102D70000E94EE148093C7010E94F6149093EF0115
:102D80008093EE010E94F214682F70E080E090E0E2
:102D90000C945C128091D101089508950895CF9309
:102DA000DF93EC010E946F18823011F0843039F506
:102DB00081E08093E9008FEF9091E800815095FDCC
:102DC00006C095ED9A95F1F700008111F5CF80913D
:102DD000E80085FF14C040E050E068E070E0CE01FC
:102DE0000E948C188091E8008E778093E80088E03C
:102DF000FE01A9ECB1E001900D928A95E1F7DF9117
:102E0000CF91089508958091F301811109C00E9426
:102E10001D1A0E947A1A8091E20084608093E20079
:102E200008951092F3010895089508950C942616BC
:102E300042E061EC81E00C9496198091F6018330B8
:102E400009F460C030F4813071F0823009F499C027
:102E500008958A3009F485C08B3009F46BC089303D
:102E600009F0A7C020C08091F501813A09F0A1C006
:102E70008091E800877F8093E8008091F90190912C
:102E8000FA01892B21F468E089EC91E003C060E04D
:102E900080E090E070E00E94D7188091E8008B7786
:102EA0008093E80008958091F501813209F081C096
:102EB0008091F9019091FA01892B09F07AC08091F3
:102EC000E800877F8093E8008091E80082FD05C0DC
:102ED0008091F4018111F8CF6CC02091F3008091B2
:102EE000F20090E0922B029729F48091F1008B7F01
:102EF000813021F48091F1008093D1018091E8002C
:102F00008B7753C08091F501813A09F052C08091CE
:102F1000F9019091FA01892B09F04BC08091E800EA
:102F2000877F8093E8008091E80080FFFCCF80914C
:102F3000150136C08091F5018132D9F58091F901F2
:102F40009091FA01892BA9F58091E800877F809301
:102F5000E8000E94CB198091F701809315010C9431
:102F6000800E8091F501813221F58091E800877F04
:102F70008093E8000E94CB198091F8018093D201E0
:102F800008958091F501813AA1F48091E800877F4E
:102F90008093E8008091E80080FFFCCF8091D2010F
:102FA0008093F1008091E8008E778093E8000C9484
:102FB000CB19089584B7877F84BF0FB6F894A8957E
:102FC00080916000886180936000109260000FBE65
:102FD00090E080E80FB6F8948093610090936100D0
:102FE0000FBE0E94EA0A0E941D1A0E947A1A80915E
:102FF000E20084608093E20078940E940F1D0E949A
:10300000F00A8BE091E00E94940A8091F4018530EF
:1030100069F40E94F4158091F2018823B1F30E94B3
:10302000DC15882391F30E947618EFCF0E94F80AEE
:10303000ECCF0C941B18292F332723303105C1F016
:1030400058F42130310579F022303105C1F582E2A2
:1030500090E024E633E037C02132310511F122320D
:10306000310531F12CC082E190E026E833E02BC03D
:1030700099278130910561F040F08230910559F037
:103080000397E9F4ECE2F3E008C0E0E6F3E005C002
:10309000EAE4F3E002C0E2E3F3E0849190E09F0110
:1030A00012C0672B61F489E090E026E733E00BC0A3
:1030B000672B29F480E490E028E933E004C080E045
:1030C00090E020E030E0FA01318320830895809180
:1030D000F401843011F081E0089582E00895809138
:1030E000D301811102C00C946718089580E189BD55
:1030F00082E189BD09B400FEFDCF8091D8008F7DAB
:103100008093D8008091E00082608093E0008091FD
:10311000E00081FDFCCF0895CF92DF92EF92FF9205
:103120000F931F93CF93DF93EC018B017A010E94E1
:10313000EA19811133C0E114F10439F0F7018081FB
:103140009181081B190BC80FD91FC12CD12C011557
:10315000110519F18091E80085FD16C08091E80005
:103160008E778093E800E114F10449F0F701808143
:103170009181C80ED91ED182C08285E00FC00E9405
:10318000EA19882321F30AC089918093F100015044
:103190001109FFEFCF1ADF0ADACF80E0DF91CF917C
:1031A0001F910F91FF90EF90DF90CF9008952091A5
:1031B000FB013091FC012617370748F061157105B6
:1031C00039F42091E8002E772093E80001C0B9017E
:1031D000FC0120E06115710579F18091F4018823EB
:1031E000F1F18530F1F18091E80083FD3CC08091E0
:1031F000E80082FD2EC08091E80080FFEBCF209197
:10320000F3008091F20090E0922B6115710551F06E
:103210008830910538F421912093F10061507109B3
:103220000196F3CF21E0089709F020E08091E800B3
:103230008E778093E800CECF2111CFCF0AC0809146
:10324000F401882361F0853061F08091E80083FD0E
:103250000AC08091E80082FFF2CF80E0089582E00A
:10326000089583E0089581E008952091FB01309155
:10327000FC012617370748F06115710539F42091D4
:10328000E8002E772093E80001C0B901FC0120E09E
:103290006115710591F18091F401882309F440C012
:1032A000853009F43FC08091E80083FD3DC08091E6
:1032B000E80082FD2FC08091E80080FFE9CF2091D7
:1032C000F3008091F20090E0922B6115710559F0A6
:1032D0008830910540F424912093F100319661509B
:1032E00071090196F2CF21E0089709F020E0809162
:1032F000E8008E778093E800CBCF2111CCCF0AC0B5
:103300008091F401882361F0853061F08091E800BC
:1033100083FD0AC08091E80082FFF2CF80E008952B
:1033200082E0089583E0089581E00895982F973012
:1033300068F59093E900981739F07091EC002091AE
:10334000ED005091F00003C0242F762F50E021FDB6
:1033500002C09F5FECCF3091EB003E7F3093EB00DB
:103360003091ED003D7F3093ED003091EB00316006
:103370003093EB007093EC002093ED005093F0003D
:103380002091EE0027FDE5CF80E008958F708093B7
:10339000E90081E008958091F50187FF11C08091D7
:1033A000E80082FD05C08091F4018111F8CF11C0C1
:1033B0008091E8008B770BC08091F401882349F05D
:1033C0008091E80080FFF8CF8091E8008E778093AD
:1033D000E80008952091E4003091E50095E64091E1
:1033E000EC00842F817040FF23C08091E80080FDB5
:1033F0001DC08091F401882399F0853099F0809167
:10340000EB0085FD11C04091E4005091E5002417C8
:10341000350729F3915011F09A01E1CF84E0089526
:1034200082E0089583E0089581E0089580E00895A2
:103430004091E80042FFDDCF08950E948B1A0E9460
:10344000931AE0EEF0E0808181608083E8EDF0E0A7
:1034500080818F77808319BCA7EDB0E08C918E7F3F
:103460008C9380818F7E80831092F30108950F9357
:103470001F93CF93DF930E948B1A0E94931AC8ED7B
:10348000D0E088818F77888388818068888388816D
:103490008F7D888319BC1092F4011092F001109274
:1034A000F2011092F10100EE10E0F80180818B7FB3
:1034B000808388818160888342E060E080E00E94B0
:1034C0009619E1EEF0E080818E7F8083E2EEF0E0FD
:1034D000808181608083808188608083F801808121
:1034E0008E7F8083888180618883DF91CF911F9157
:1034F0000F910895E8EDF0E080818F7E8083E7ED05
:10350000F0E080818160808384E082BF81E08093ED
:10351000F3010C94371AE8EDF0E080818E7F808310
:103520001092E20008951092DA001092E1000895DE
:103530001F920F920FB60F9211242F933F934F9328
:103540005F936F937F938F939F93AF93BF93EF930B
:10355000FF938091E10082FF0BC08091E20082FF27
:1035600007C08091E1008B7F8093E1000E940E1DD7
:103570008091DA0080FF1FC08091D80080FF1BC0BF
:103580008091DA008E7F8093DA008091D90080FFED
:103590000DC080E189BD82E189BD09B400FEFDCF87
:1035A00081E08093F4010E94031705C019BC1092BA
:1035B000F4010E9411178091E10080FF19C08091F1
:1035C000E20080FF15C08091E2008E7F8093E200D0
:1035D0008091E20080618093E2008091D800806257
:1035E0008093D80019BC85E08093F4010E941517E0
:1035F0008091E10084FF30C08091E20084FF2CC004
:1036000080E189BD82E189BD09B400FEFDCF8091D2
:10361000D8008F7D8093D8008091E1008F7E8093C9
:10362000E1008091E2008F7E8093E2008091E200D1
:1036300081608093E2008091F001882311F084E0A2
:1036400007C08091E30087FD02C081E001C083E0F4
:103650008093F4010E9416178091E10083FF29C036
:103660008091E20083FF25C08091E100877F8093F5
:10367000E10082E08093F4011092F0018091E1007A
:103680008E7F8093E1008091E2008E7F8093E20044
:103690008091E20080618093E20042E060E080E09F
:1036A0000E9496198091F00088608093F0000E943B
:1036B0001417FF91EF91BF91AF919F918F917F91DF
:1036C0006F915F914F913F912F910F900FBE0F908F
:1036D0001F9018951F920F920FB60F9211242F93DF
:1036E0003F934F935F936F937F938F939F93AF938A
:1036F000BF93CF93DF93EF93FF93C091E900CF7017
:103700008091EC00D82FD17080FDD0E81092E900B4
:103710008091F000877F8093F00078940E94AE1B28
:103720001092E9008091F00088608093F000CD2B2A
:10373000CF70C093E900FF91EF91DF91CF91BF91DE
:10374000AF919F918F917F916F915F914F913F9139
:103750002F910F900FBE0F901F9018951F93CF932E
:10376000DF93CDB7DEB7AA970FB6F894DEBF0FBED2
:10377000CDBFE5EFF1E08091F100819321E0ED3FD5
:10378000F207C9F70E941D178091E80083FF2EC140
:103790008091F5019091F601492F50E04A30510592
:1037A00008F024C1FA01EC58FF4F0C942A1D803810
:1037B00021F0823809F01AC108C08091F10190917E
:1037C000F201992389F082600FC08091F9018F7016
:1037D000873008F00BC18093E9008091EB0085FBF6
:1037E000882780F91092E9009091E800977F9093E4
:1037F000E8008093F1001092F100D1C0282F2D7FB6
:1038000009F0F4C0882319F0823061F0EFC0809194
:10381000F701813009F0EAC0933009F080E080932D
:10382000F2012EC08091F70181112AC08091F90127
:103830008F702FEF280F263008F0D8C08093E90052
:103840002091EB0020FF1CC0933021F48091EB000D
:10385000806214C09091EB0090619093EB0021E0A6
:1038600030E0A90102C0440F551F8A95E2F740934A
:10387000EA001092EA008091EB0088608093EB00F0
:103880001092E9008091E800877F8093E8000E9411
:10389000CB19ACC08111AAC01091F7011F7780919C
:1038A000E3008078812B8093E3008091E800877F9C
:1038B0008093E8000E94CB198091E80080FFFCCF44
:1038C0008091E30080688093E300111102C082E0E0
:1038D00001C083E08093F40189C08058823008F0F1
:1038E00085C08091F7019091F8018C3D53E09507D8
:1038F00079F583E08A838AE289834FB7F894DE0101
:10390000139620E03EE051E2E32FF0E050935700A1
:10391000E49120FF03C0E295EF703F5FEF708E2FC0
:1039200090E0EA3010F0C79601C0C0968D939D9349
:103930002F5F243149F74FBF8091E800877F809344
:10394000E8006AE270E0CE0101960E94D71816C026
:103950006091F9017091FA01AE014F5F5F4F0E94D3
:103960001918BC01892B09F441C09091E800977F98
:103970009093E80089819A810E9435198091E8002E
:103980008B778093E80032C0803881F58091E80021
:10399000877F8093E8008091F0018093F10080910F
:1039A000E8008E7772CF811121C08091F70190914C
:1039B000F80199270297D4F48091E800877F8093DB
:1039C000E8008091F7018093F0010E94CB1980916B
:1039D000F001811106C08091E30087FD02C081E003
:1039E00001C084E08093F4010E9418178091E800E0
:1039F00083FF0AC08091E800877F8093E800809170
:103A0000EB0080628093EB00AA960FB6F894DEBFBD
:103A10000FBECDBFDF91CF911F9108950895CF9331
:103A20008091F4018823A1F0C091E900CF709091BA
:103A3000EC00892F817090FD80E8C82B1092E9007E
:103A40008091E80083FD0E94AE1BCF70C093E90017
:103A5000CF910895EE0FFF1F0590F491E02D09948A
:103A6000F999FECF92BD81BDF89A992780B5089546
:103A7000A8E1B0E042E050E00C94641D262FF999D3
:103A8000FECF92BD81BDF89A019700B4021639F0BD
:103A90001FBA20BD0FB6F894FA9AF99A0FBE08958E
:103AA0000396272F0E943F1D0E943E1D252F0E9436
:103AB0003F1D242F0C943F1D0196272F0E943F1D70
:103AC0000C943E1DDC01CB01FC01F999FECF06C030
:103AD000F2BDE1BDF89A319600B40D9241505040CC
:083AE000B8F70895F894FFCF38
:103AE800012E01002F01052F01BC01CA16CF16CDEA
:103AF800160217CE1601F4F5F6F7313332946697AD
:083B0800C634000000000000BB
:00000001FF
